{
  "address": "0xD86C8F0327494034F60e25074420BcCF560D5610",
  "abi": [
    {
      "inputs": [
        {
          "internalType": "address",
          "name": "token_",
          "type": "address"
        }
      ],
      "stateMutability": "nonpayable",
      "type": "constructor"
    },
    {
      "inputs": [],
      "name": "SafeTransferFailed",
      "type": "error"
    },
    {
      "anonymous": false,
      "inputs": [
        {
          "indexed": true,
          "internalType": "address",
          "name": "account",
          "type": "address"
        },
        {
          "indexed": false,
          "internalType": "uint256",
          "name": "amount",
          "type": "uint256"
        }
      ],
      "name": "Claimed",
      "type": "event"
    },
    {
      "anonymous": false,
      "inputs": [
        {
          "indexed": false,
          "internalType": "bytes32",
          "name": "oldMerkleRoot",
          "type": "bytes32"
        },
        {
          "indexed": false,
          "internalType": "bytes32",
          "name": "newMerkleRoot",
          "type": "bytes32"
        }
      ],
      "name": "MerkelRootUpdated",
      "type": "event"
    },
    {
      "anonymous": false,
      "inputs": [
        {
          "indexed": true,
          "internalType": "address",
          "name": "previousOwner",
          "type": "address"
        },
        {
          "indexed": true,
          "internalType": "address",
          "name": "newOwner",
          "type": "address"
        }
      ],
      "name": "OwnershipTransferred",
      "type": "event"
    },
    {
      "inputs": [
        {
          "internalType": "address",
          "name": "account",
          "type": "address"
        },
        {
          "internalType": "uint256",
          "name": "cumulativeAmount",
          "type": "uint256"
        },
        {
          "internalType": "bytes32",
          "name": "expectedMerkleRoot",
          "type": "bytes32"
        },
        {
          "internalType": "bytes32[]",
          "name": "merkleProof",
          "type": "bytes32[]"
        }
      ],
      "name": "claim",
      "outputs": [],
      "stateMutability": "nonpayable",
      "type": "function"
    },
    {
      "inputs": [
        {
          "internalType": "address",
          "name": "",
          "type": "address"
        }
      ],
      "name": "cumulativeClaimed",
      "outputs": [
        {
          "internalType": "uint256",
          "name": "",
          "type": "uint256"
        }
      ],
      "stateMutability": "view",
      "type": "function"
    },
    {
      "inputs": [],
      "name": "merkleRoot",
      "outputs": [
        {
          "internalType": "bytes32",
          "name": "",
          "type": "bytes32"
        }
      ],
      "stateMutability": "view",
      "type": "function"
    },
    {
      "inputs": [],
      "name": "owner",
      "outputs": [
        {
          "internalType": "address",
          "name": "",
          "type": "address"
        }
      ],
      "stateMutability": "view",
      "type": "function"
    },
    {
      "inputs": [],
      "name": "renounceOwnership",
      "outputs": [],
      "stateMutability": "nonpayable",
      "type": "function"
    },
    {
      "inputs": [
        {
          "internalType": "bytes32",
          "name": "merkleRoot_",
          "type": "bytes32"
        }
      ],
      "name": "setMerkleRoot",
      "outputs": [],
      "stateMutability": "nonpayable",
      "type": "function"
    },
    {
      "inputs": [],
      "name": "token",
      "outputs": [
        {
          "internalType": "address",
          "name": "",
          "type": "address"
        }
      ],
      "stateMutability": "view",
      "type": "function"
    },
    {
      "inputs": [
        {
          "internalType": "address",
          "name": "newOwner",
          "type": "address"
        }
      ],
      "name": "transferOwnership",
      "outputs": [],
      "stateMutability": "nonpayable",
      "type": "function"
    }
  ],
  "transactionHash": "0xc1dc8935ba64482746a9d00120b80dfa9f7a85a5014b1604baac97d6bb68c2fb",
  "args": [
    "0xCfEB869F69431e42cdB54A4F4f105C19C080A601"
  ],
  "numDeployments": 1,
  "solcInputHash": "a4fd92a1d21341f448b06d480c6640d4",
  "bytecode": "0x60a060405234801561001057600080fd5b506040516109a43803806109a48339818101604052602081101561003357600080fd5b505161003e3361004f565b6001600160a01b031660805261009f565b600080546001600160a01b038381166001600160a01b0319831681178455604051919092169283917f8be0079c531659141344cd1fd0a4f28419497f9722a3daafe3b4186f6b6457e09190a35050565b6080516108e36100c160003960008181610223015261043f01526108e36000f3fe608060405234801561001057600080fd5b50600436106100885760003560e01c80638da5cb5b1161005b5780638da5cb5b14610168578063a9919576146101ab578063f2fde38b146101eb578063fc0c546a1461021e57600080fd5b80631d7d4ebc1461008d5780632eb4a7ab14610128578063715018a6146101435780637cb647591461014b575b600080fd5b610126600480360360808110156100a357600080fd5b73ffffffffffffffffffffffffffffffffffffffff82351691602081013591604082013591908101906080810160608201356401000000008111156100e757600080fd5b8201836020820111156100f957600080fd5b8035906020019184602083028401116401000000008311171561011b57600080fd5b509092509050610245565b005b61013160015481565b60408051918252519081900360200190f35b6101266104bc565b6101266004803603602081101561016157600080fd5b503561054e565b60005473ffffffffffffffffffffffffffffffffffffffff165b6040805173ffffffffffffffffffffffffffffffffffffffff9092168252519081900360200190f35b610131600480360360208110156101c157600080fd5b5060026020523573ffffffffffffffffffffffffffffffffffffffff166000908152604090205481565b6101266004803603602081101561020157600080fd5b503573ffffffffffffffffffffffffffffffffffffffff16610611565b6101827f000000000000000000000000000000000000000000000000000000000000000081565b82600154146102b557604080517f08c379a000000000000000000000000000000000000000000000000000000000815260206004820152601c60248201527f434d443a204d65726b6c6520726f6f7420776173207570646174656400000000604482015290519081900360640190fd5b60008585604051602001808373ffffffffffffffffffffffffffffffffffffffff1660601b81526014018281526020019250505060405160208183030381529060405280519060200120905061030d83838684610741565b61037857604080517f08c379a000000000000000000000000000000000000000000000000000000000815260206004820152601260248201527f434d443a20496e76616c69642070726f6f660000000000000000000000000000604482015290519081900360640190fd5b73ffffffffffffffffffffffffffffffffffffffff861660009081526002602052604090205485811061040c57604080517f08c379a000000000000000000000000000000000000000000000000000000000815260206004820152601560248201527f434d443a204e6f7468696e6720746f20636c61696d0000000000000000000000604482015290519081900360640190fd5b73ffffffffffffffffffffffffffffffffffffffff808816600090815260026020526040902087905581870390610466907f0000000000000000000000000000000000000000000000000000000000000000168983610794565b60408051828152905173ffffffffffffffffffffffffffffffffffffffff8a16917fd8138f8a3f377c5259ca548e70e4c2de94f129f5a11036a15b69513cba2b426a919081900360200190a25050505050505050565b60005473ffffffffffffffffffffffffffffffffffffffff163314610542576040517f08c379a000000000000000000000000000000000000000000000000000000000815260206004820181905260248201527f4f776e61626c653a2063616c6c6572206973206e6f7420746865206f776e657260448201526064015b60405180910390fd5b61054c60006107fb565b565b60005473ffffffffffffffffffffffffffffffffffffffff1633146105cf576040517f08c379a000000000000000000000000000000000000000000000000000000000815260206004820181905260248201527f4f776e61626c653a2063616c6c6572206973206e6f7420746865206f776e65726044820152606401610539565b600154604080519182526020820183905280517f936fd71fceff3b4f98f4935ac269e4f94b4b25e3e38c519d3ff3db222a27117a9281900390910190a1600155565b60005473ffffffffffffffffffffffffffffffffffffffff163314610692576040517f08c379a000000000000000000000000000000000000000000000000000000000815260206004820181905260248201527f4f776e61626c653a2063616c6c6572206973206e6f7420746865206f776e65726044820152606401610539565b73ffffffffffffffffffffffffffffffffffffffff8116610735576040517f08c379a000000000000000000000000000000000000000000000000000000000815260206004820152602660248201527f4f776e61626c653a206e6577206f776e657220697320746865207a65726f206160448201527f64647265737300000000000000000000000000000000000000000000000000006064820152608401610539565b61073e816107fb565b50565b6000848460200281015b8082101561078a5781358085106001811461076d578160005285602052610776565b85600052816020525b50506040600020935060208201915061074b565b5050501492915050565b6107c0837fa9059cbb000000000000000000000000000000000000000000000000000000008484610870565b6107f6576040517ffb7f507900000000000000000000000000000000000000000000000000000000815260040160405180910390fd5b505050565b6000805473ffffffffffffffffffffffffffffffffffffffff8381167fffffffffffffffffffffffff0000000000000000000000000000000000000000831681178455604051919092169283917f8be0079c531659141344cd1fd0a4f28419497f9722a3daafe3b4186f6b6457e09190a35050565b60006040518481528360048201528260248201526020600060448360008a5af19050600160005114601f3d11163d1517811691505094935050505056fea2646970667358221220a29ba8cb95739b72912726b1608ee42aa1d189d0d58f66d88f5cd9c12fd20d0864736f6c634300080f0033",
  "devdoc": {
    "kind": "dev",
    "methods": {
      "owner()": {
        "details": "Returns the address of the current owner."
      },
      "renounceOwnership()": {
        "details": "Leaves the contract without owner. It will not be possible to call `onlyOwner` functions anymore. Can only be called by the current owner. NOTE: Renouncing ownership will leave the contract without an owner, thereby removing any functionality that is only available to the owner."
      },
      "transferOwnership(address)": {
        "details": "Transfers ownership of the contract to a new account (`newOwner`). Can only be called by the current owner."
      }
    },
    "version": 1
  },
  "userdoc": {
    "kind": "user",
    "methods": {},
    "version": 1
  },
  "storageLayout": {
    "storage": [
      {
        "astId": 670,
        "contract": "contracts/CumulativeMerkleDrop.sol:CumulativeMerkleDrop",
        "label": "_owner",
        "offset": 0,
        "slot": "0",
        "type": "t_address"
      },
      {
        "astId": 1931,
        "contract": "contracts/CumulativeMerkleDrop.sol:CumulativeMerkleDrop",
        "label": "merkleRoot",
        "offset": 0,
        "slot": "1",
        "type": "t_bytes32"
      },
      {
        "astId": 1935,
        "contract": "contracts/CumulativeMerkleDrop.sol:CumulativeMerkleDrop",
        "label": "cumulativeClaimed",
        "offset": 0,
        "slot": "2",
        "type": "t_mapping(t_address,t_uint256)"
      }
    ],
    "types": {
      "t_address": {
        "encoding": "inplace",
        "label": "address",
        "numberOfBytes": "20"
      },
      "t_bytes32": {
        "encoding": "inplace",
        "label": "bytes32",
        "numberOfBytes": "32"
      },
      "t_mapping(t_address,t_uint256)": {
        "encoding": "mapping",
        "key": "t_address",
        "label": "mapping(address => uint256)",
        "numberOfBytes": "32",
        "value": "t_uint256"
      },
      "t_uint256": {
        "encoding": "inplace",
        "label": "uint256",
        "numberOfBytes": "32"
      }
    }
  }
}